{
  "address": "0xD42D4d6d159aE44829be781Bcb04fe5903A2Add4",
  "abi": [
    {
      "inputs": [
        {
          "internalType": "address",
          "name": "_degisNFT",
          "type": "address"
        },
        {
          "internalType": "address",
          "name": "_veDEG",
          "type": "address"
        }
      ],
      "stateMutability": "nonpayable",
      "type": "constructor"
    },
    {
      "anonymous": false,
      "inputs": [
        {
          "indexed": true,
          "internalType": "address",
          "name": "previousOwner",
          "type": "address"
        },
        {
          "indexed": true,
          "internalType": "address",
          "name": "newOwner",
          "type": "address"
        }
      ],
      "name": "OwnershipTransferred",
      "type": "event"
    },
    {
      "anonymous": false,
      "inputs": [
        {
          "indexed": false,
          "internalType": "address",
          "name": "user",
          "type": "address"
        },
        {
          "indexed": false,
          "internalType": "uint256",
          "name": "tokenId",
          "type": "uint256"
        },
        {
          "indexed": false,
          "internalType": "uint256",
          "name": "boostType",
          "type": "uint256"
        }
      ],
      "name": "Stake",
      "type": "event"
    },
    {
      "anonymous": false,
      "inputs": [
        {
          "indexed": false,
          "internalType": "address",
          "name": "user",
          "type": "address"
        },
        {
          "indexed": false,
          "internalType": "uint256",
          "name": "tokenId",
          "type": "uint256"
        }
      ],
      "name": "Unstake",
      "type": "event"
    },
    {
      "anonymous": false,
      "inputs": [
        {
          "indexed": false,
          "internalType": "address",
          "name": "operator",
          "type": "address"
        },
        {
          "indexed": false,
          "internalType": "address",
          "name": "from",
          "type": "address"
        },
        {
          "indexed": false,
          "internalType": "uint256",
          "name": "tokenId",
          "type": "uint256"
        },
        {
          "indexed": false,
          "internalType": "bytes",
          "name": "data",
          "type": "bytes"
        }
      ],
      "name": "championReceived",
      "type": "event"
    },
    {
      "inputs": [
        {
          "internalType": "address",
          "name": "",
          "type": "address"
        }
      ],
      "name": "champions",
      "outputs": [
        {
          "internalType": "uint256",
          "name": "",
          "type": "uint256"
        }
      ],
      "stateMutability": "view",
      "type": "function"
    },
    {
      "inputs": [],
      "name": "degisNFT",
      "outputs": [
        {
          "internalType": "contract IDegisNFT",
          "name": "",
          "type": "address"
        }
      ],
      "stateMutability": "view",
      "type": "function"
    },
    {
      "inputs": [
        {
          "internalType": "address",
          "name": "operator",
          "type": "address"
        },
        {
          "internalType": "address",
          "name": "from",
          "type": "address"
        },
        {
          "internalType": "uint256",
          "name": "tokenId",
          "type": "uint256"
        },
        {
          "internalType": "bytes",
          "name": "data",
          "type": "bytes"
        }
      ],
      "name": "onERC721Received",
      "outputs": [
        {
          "internalType": "bytes4",
          "name": "",
          "type": "bytes4"
        }
      ],
      "stateMutability": "nonpayable",
      "type": "function"
    },
    {
      "inputs": [],
      "name": "owner",
      "outputs": [
        {
          "internalType": "address",
          "name": "",
          "type": "address"
        }
      ],
      "stateMutability": "view",
      "type": "function"
    },
    {
      "inputs": [],
      "name": "renounceOwnership",
      "outputs": [],
      "stateMutability": "nonpayable",
      "type": "function"
    },
    {
      "inputs": [
        {
          "internalType": "address",
          "name": "_degisNFT",
          "type": "address"
        }
      ],
      "name": "setDegisNFTContract",
      "outputs": [],
      "stateMutability": "nonpayable",
      "type": "function"
    },
    {
      "inputs": [
        {
          "internalType": "address",
          "name": "_veDEG",
          "type": "address"
        }
      ],
      "name": "setVeDEG",
      "outputs": [],
      "stateMutability": "nonpayable",
      "type": "function"
    },
    {
      "inputs": [
        {
          "internalType": "uint256",
          "name": "_tokenId",
          "type": "uint256"
        }
      ],
      "name": "stake",
      "outputs": [],
      "stateMutability": "nonpayable",
      "type": "function"
    },
    {
      "inputs": [
        {
          "internalType": "address",
          "name": "newOwner",
          "type": "address"
        }
      ],
      "name": "transferOwnership",
      "outputs": [],
      "stateMutability": "nonpayable",
      "type": "function"
    },
    {
      "inputs": [],
      "name": "veDEG",
      "outputs": [
        {
          "internalType": "contract IVeDEG",
          "name": "",
          "type": "address"
        }
      ],
      "stateMutability": "view",
      "type": "function"
    },
    {
      "inputs": [
        {
          "internalType": "uint256",
          "name": "_tokenId",
          "type": "uint256"
        }
      ],
      "name": "withdraw",
      "outputs": [],
      "stateMutability": "nonpayable",
      "type": "function"
    }
  ],
  "transactionHash": "0x5d4e0af66f8f300d95f6c10d3a0752125184700ea59482386d7b4bfc4357c955",
  "args": [
    "0x55b829df2E068E0fe002DB07632054cf979D5A40",
    "0x71220F9CFe73Fd02A4adff524BeaE689dDa78f4A"
  ],
  "numDeployments": 2,
  "solcInputHash": "7bd5688a85073d495271399167a654e3",
  "bytecode": "0x608060405234801561001057600080fd5b50604051610cc0380380610cc083398101604081905261002f916100d5565b61003833610069565b600180546001600160a01b039384166001600160a01b03199182161790915560028054929093169116179055610108565b600080546001600160a01b038381166001600160a01b0319831681178455604051919092169283917f8be0079c531659141344cd1fd0a4f28419497f9722a3daafe3b4186f6b6457e09190a35050565b80516001600160a01b03811681146100d057600080fd5b919050565b600080604083850312156100e857600080fd5b6100f1836100b9565b91506100ff602084016100b9565b90509250929050565b610ba9806101176000396000f3fe608060405234801561001057600080fd5b50600436106100c95760003560e01c8063715018a611610081578063a694fc3a1161005b578063a694fc3a146101c4578063f2fde38b146101d7578063f499d7d3146101ea57600080fd5b8063715018a61461017d57806377473627146101855780638da5cb5b146101b357600080fd5b80632e1a7d4d116100b25780632e1a7d4d1461012c5780633259d1f11461013f5780634f3e7ba61461015257600080fd5b806307a96cbf146100ce578063150b7a02146100e3575b600080fd5b6100e16100dc366004610a26565b6101fd565b005b6100f66100f1366004610a4a565b61028b565b6040517fffffffff0000000000000000000000000000000000000000000000000000000090911681526020015b60405180910390f35b6100e161013a366004610ae9565b6102f7565b6100e161014d366004610a26565b610485565b600254610165906001600160a01b031681565b6040516001600160a01b039091168152602001610123565b6100e161050e565b6101a5610193366004610a26565b60036020526000908152604090205481565b604051908152602001610123565b6000546001600160a01b0316610165565b6100e16101d2366004610ae9565b610574565b6100e16101e5366004610a26565b6108d2565b600154610165906001600160a01b031681565b6000546001600160a01b0316331461025c5760405162461bcd60e51b815260206004820181905260248201527f4f776e61626c653a2063616c6c6572206973206e6f7420746865206f776e657260448201526064015b60405180910390fd5b6002805473ffffffffffffffffffffffffffffffffffffffff19166001600160a01b0392909216919091179055565b60007f114f4fb527670228e4399fe1472e6a44fa3679d755d1d9f29863bf0272077ea686868686866040516102c4959493929190610b02565b60405180910390a1507f150b7a020000000000000000000000000000000000000000000000000000000095945050505050565b3360009081526003602052604090205481146103555760405162461bcd60e51b815260206004820152601260248201527f6e6f74206f776e6572206f6620746f6b656e00000000000000000000000000006044820152606401610253565b600154604051632142170760e11b8152306004820152336024820152604481018390526001600160a01b03909116906342842e0e90606401600060405180830381600087803b1580156103a757600080fd5b505af11580156103bb573d6000803e3d6000fd5b5050336000818152600360205260408082209190915560025490517f8d9be0ee00000000000000000000000000000000000000000000000000000000815260048101929092526001600160a01b03169250638d9be0ee9150602401600060405180830381600087803b15801561043057600080fd5b505af1158015610444573d6000803e3d6000fd5b505060408051338152602081018590527f85082129d87b2fe11527cb1b3b7a520aeb5aa6913f88a3d8757fe40d1db02fdd935001905060405180910390a150565b6000546001600160a01b031633146104df5760405162461bcd60e51b815260206004820181905260248201527f4f776e61626c653a2063616c6c6572206973206e6f7420746865206f776e65726044820152606401610253565b6001805473ffffffffffffffffffffffffffffffffffffffff19166001600160a01b0392909216919091179055565b6000546001600160a01b031633146105685760405162461bcd60e51b815260206004820181905260248201527f4f776e61626c653a2063616c6c6572206973206e6f7420746865206f776e65726044820152606401610253565b61057260006109b4565b565b6001546040517f6352211e0000000000000000000000000000000000000000000000000000000081526004810183905233916001600160a01b031690636352211e90602401602060405180830381865afa1580156105d6573d6000803e3d6000fd5b505050506040513d601f19601f820116820180604052508101906105fa9190610b56565b6001600160a01b0316146106505760405162461bcd60e51b815260206004820152601260248201527f6e6f74206f776e6572206f6620746f6b656e00000000000000000000000000006044820152606401610253565b806000036106a05760405162461bcd60e51b815260206004820152601360248201527f746f6b656e49642063616e6e6f742062652030000000000000000000000000006044820152606401610253565b33600090815260036020526040902054156106fd5760405162461bcd60e51b815260206004820152600e60248201527f616c7265616479207374616b65640000000000000000000000000000000000006044820152606401610253565b6001546040517f095ea7b3000000000000000000000000000000000000000000000000000000008152306004820152602481018390526001600160a01b039091169063095ea7b390604401600060405180830381600087803b15801561076257600080fd5b505af1158015610776573d6000803e3d6000fd5b5050600154604051632142170760e11b8152336004820152306024820152604481018590526001600160a01b0390911692506342842e0e9150606401600060405180830381600087803b1580156107cc57600080fd5b505af11580156107e0573d6000803e3d6000fd5b505033600090815260036020526040812084905591505060638211610806576002610809565b60015b6002546040517f6bb3535e00000000000000000000000000000000000000000000000000000000815233600482015260ff929092166024830181905292506001600160a01b031690636bb3535e90604401600060405180830381600087803b15801561087457600080fd5b505af1158015610888573d6000803e3d6000fd5b505060408051338152602081018690529081018490527f5af417134f72a9d41143ace85b0a26dce6f550f894f2cbc1eeee8810603d91b69250606001905060405180910390a15050565b6000546001600160a01b0316331461092c5760405162461bcd60e51b815260206004820181905260248201527f4f776e61626c653a2063616c6c6572206973206e6f7420746865206f776e65726044820152606401610253565b6001600160a01b0381166109a85760405162461bcd60e51b815260206004820152602660248201527f4f776e61626c653a206e6577206f776e657220697320746865207a65726f206160448201527f64647265737300000000000000000000000000000000000000000000000000006064820152608401610253565b6109b1816109b4565b50565b600080546001600160a01b0383811673ffffffffffffffffffffffffffffffffffffffff19831681178455604051919092169283917f8be0079c531659141344cd1fd0a4f28419497f9722a3daafe3b4186f6b6457e09190a35050565b6001600160a01b03811681146109b157600080fd5b600060208284031215610a3857600080fd5b8135610a4381610a11565b9392505050565b600080600080600060808688031215610a6257600080fd5b8535610a6d81610a11565b94506020860135610a7d81610a11565b935060408601359250606086013567ffffffffffffffff80821115610aa157600080fd5b818801915088601f830112610ab557600080fd5b813581811115610ac457600080fd5b896020828501011115610ad657600080fd5b9699959850939650602001949392505050565b600060208284031215610afb57600080fd5b5035919050565b60006001600160a01b03808816835280871660208401525084604083015260806060830152826080830152828460a0840137600060a0848401015260a0601f19601f85011683010190509695505050505050565b600060208284031215610b6857600080fd5b8151610a4381610a1156fea26469706673582212201833727465697ab4a758f02abaf8b439c94f6d78800517a6d2e77c228f46dbbe64736f6c634300080d0033",
  "devdoc": {
    "kind": "dev",
    "methods": {
      "owner()": {
        "details": "Returns the address of the current owner."
      },
      "renounceOwnership()": {
        "details": "Leaves the contract without owner. It will not be possible to call `onlyOwner` functions anymore. Can only be called by the current owner. NOTE: Renouncing ownership will leave the contract without an owner, thereby removing any functionality that is only available to the owner."
      },
      "setDegisNFTContract(address)": {
        "params": {
          "_degisNFT": "Degis nft address"
        }
      },
      "setVeDEG(address)": {
        "params": {
          "_veDEG": "VeDEG address"
        }
      },
      "stake(uint256)": {
        "params": {
          "_tokenId": "Token id to stake"
        }
      },
      "transferOwnership(address)": {
        "details": "Transfers ownership of the contract to a new account (`newOwner`). Can only be called by the current owner."
      },
      "withdraw(uint256)": {
        "params": {
          "_tokenId": "Token id to withdraw"
        }
      }
    },
    "version": 1
  },
  "userdoc": {
    "kind": "user",
    "methods": {
      "onERC721Received(address,address,uint256,bytes)": {
        "notice": "Selector for receiving ERC721 tokens"
      },
      "setDegisNFTContract(address)": {
        "notice": "Set degis nft contract"
      },
      "setVeDEG(address)": {
        "notice": "Set veDEG contract"
      },
      "stake(uint256)": {
        "notice": "Stake NFT"
      },
      "withdraw(uint256)": {
        "notice": "Withdraw NFT"
      }
    },
    "version": 1
  },
  "storageLayout": {
    "storage": [
      {
        "astId": 7,
        "contract": "contracts/NFTStaking.sol:NFTStaking",
        "label": "_owner",
        "offset": 0,
        "slot": "0",
        "type": "t_address"
      },
      {
        "astId": 3378,
        "contract": "contracts/NFTStaking.sol:NFTStaking",
        "label": "degisNFT",
        "offset": 0,
        "slot": "1",
        "type": "t_contract(IDegisNFT)3650"
      },
      {
        "astId": 3381,
        "contract": "contracts/NFTStaking.sol:NFTStaking",
        "label": "veDEG",
        "offset": 0,
        "slot": "2",
        "type": "t_contract(IVeDEG)3665"
      },
      {
        "astId": 3385,
        "contract": "contracts/NFTStaking.sol:NFTStaking",
        "label": "champions",
        "offset": 0,
        "slot": "3",
        "type": "t_mapping(t_address,t_uint256)"
      }
    ],
    "types": {
      "t_address": {
        "encoding": "inplace",
        "label": "address",
        "numberOfBytes": "20"
      },
      "t_contract(IDegisNFT)3650": {
        "encoding": "inplace",
        "label": "contract IDegisNFT",
        "numberOfBytes": "20"
      },
      "t_contract(IVeDEG)3665": {
        "encoding": "inplace",
        "label": "contract IVeDEG",
        "numberOfBytes": "20"
      },
      "t_mapping(t_address,t_uint256)": {
        "encoding": "mapping",
        "key": "t_address",
        "label": "mapping(address => uint256)",
        "numberOfBytes": "32",
        "value": "t_uint256"
      },
      "t_uint256": {
        "encoding": "inplace",
        "label": "uint256",
        "numberOfBytes": "32"
      }
    }
  }
}