{
  "address": "0xFEB661d20d01d378A05E46219C3c947aa7Fa8f6D",
  "abi": [
    {
      "inputs": [
        {
          "internalType": "address",
          "name": "_degis",
          "type": "address"
        }
      ],
      "stateMutability": "nonpayable",
      "type": "constructor"
    },
    {
      "anonymous": false,
      "inputs": [
        {
          "indexed": false,
          "internalType": "address",
          "name": "user",
          "type": "address"
        },
        {
          "indexed": false,
          "internalType": "uint256",
          "name": "tokenId",
          "type": "uint256"
        }
      ],
      "name": "AirdropClaim",
      "type": "event"
    },
    {
      "anonymous": false,
      "inputs": [
        {
          "indexed": false,
          "internalType": "address",
          "name": "user",
          "type": "address"
        },
        {
          "indexed": false,
          "internalType": "uint256",
          "name": "quantity",
          "type": "uint256"
        },
        {
          "indexed": false,
          "internalType": "uint256",
          "name": "tokenId",
          "type": "uint256"
        }
      ],
      "name": "AllowlistSale",
      "type": "event"
    },
    {
      "anonymous": false,
      "inputs": [
        {
          "indexed": true,
          "internalType": "address",
          "name": "owner",
          "type": "address"
        },
        {
          "indexed": true,
          "internalType": "address",
          "name": "approved",
          "type": "address"
        },
        {
          "indexed": true,
          "internalType": "uint256",
          "name": "tokenId",
          "type": "uint256"
        }
      ],
      "name": "Approval",
      "type": "event"
    },
    {
      "anonymous": false,
      "inputs": [
        {
          "indexed": true,
          "internalType": "address",
          "name": "owner",
          "type": "address"
        },
        {
          "indexed": true,
          "internalType": "address",
          "name": "operator",
          "type": "address"
        },
        {
          "indexed": false,
          "internalType": "bool",
          "name": "approved",
          "type": "bool"
        }
      ],
      "name": "ApprovalForAll",
      "type": "event"
    },
    {
      "anonymous": false,
      "inputs": [
        {
          "indexed": true,
          "internalType": "address",
          "name": "previousOwner",
          "type": "address"
        },
        {
          "indexed": true,
          "internalType": "address",
          "name": "newOwner",
          "type": "address"
        }
      ],
      "name": "OwnershipTransferred",
      "type": "event"
    },
    {
      "anonymous": false,
      "inputs": [
        {
          "indexed": false,
          "internalType": "address",
          "name": "user",
          "type": "address"
        },
        {
          "indexed": false,
          "internalType": "uint256",
          "name": "quantity",
          "type": "uint256"
        },
        {
          "indexed": false,
          "internalType": "uint256",
          "name": "tokenId",
          "type": "uint256"
        }
      ],
      "name": "PublicSale",
      "type": "event"
    },
    {
      "anonymous": false,
      "inputs": [
        {
          "indexed": false,
          "internalType": "string",
          "name": "baseUri",
          "type": "string"
        }
      ],
      "name": "SetBaseURI",
      "type": "event"
    },
    {
      "anonymous": false,
      "inputs": [
        {
          "indexed": false,
          "internalType": "uint256",
          "name": "oldStatus",
          "type": "uint256"
        },
        {
          "indexed": false,
          "internalType": "uint256",
          "name": "newStatus",
          "type": "uint256"
        }
      ],
      "name": "StatusChange",
      "type": "event"
    },
    {
      "anonymous": false,
      "inputs": [
        {
          "indexed": true,
          "internalType": "address",
          "name": "from",
          "type": "address"
        },
        {
          "indexed": true,
          "internalType": "address",
          "name": "to",
          "type": "address"
        },
        {
          "indexed": true,
          "internalType": "uint256",
          "name": "tokenId",
          "type": "uint256"
        }
      ],
      "name": "Transfer",
      "type": "event"
    },
    {
      "anonymous": false,
      "inputs": [
        {
          "indexed": true,
          "internalType": "address",
          "name": "token",
          "type": "address"
        },
        {
          "indexed": false,
          "internalType": "uint256",
          "name": "amount",
          "type": "uint256"
        },
        {
          "indexed": false,
          "internalType": "address",
          "name": "receiver",
          "type": "address"
        }
      ],
      "name": "WithdrawERC20",
      "type": "event"
    },
    {
      "inputs": [],
      "name": "DEG",
      "outputs": [
        {
          "internalType": "address",
          "name": "",
          "type": "address"
        }
      ],
      "stateMutability": "view",
      "type": "function"
    },
    {
      "inputs": [],
      "name": "MAXAMOUNT_ALLOWLIST",
      "outputs": [
        {
          "internalType": "uint256",
          "name": "",
          "type": "uint256"
        }
      ],
      "stateMutability": "view",
      "type": "function"
    },
    {
      "inputs": [],
      "name": "MAXAMOUNT_PUBLICSALE",
      "outputs": [
        {
          "internalType": "uint256",
          "name": "",
          "type": "uint256"
        }
      ],
      "stateMutability": "view",
      "type": "function"
    },
    {
      "inputs": [],
      "name": "MAX_SUPPLY",
      "outputs": [
        {
          "internalType": "uint256",
          "name": "",
          "type": "uint256"
        }
      ],
      "stateMutability": "view",
      "type": "function"
    },
    {
      "inputs": [],
      "name": "PRICE_ALLOWLIST",
      "outputs": [
        {
          "internalType": "uint256",
          "name": "",
          "type": "uint256"
        }
      ],
      "stateMutability": "view",
      "type": "function"
    },
    {
      "inputs": [],
      "name": "PRICE_PUBLICSALE",
      "outputs": [
        {
          "internalType": "uint256",
          "name": "",
          "type": "uint256"
        }
      ],
      "stateMutability": "view",
      "type": "function"
    },
    {
      "inputs": [],
      "name": "STATUS_AIRDROP",
      "outputs": [
        {
          "internalType": "uint256",
          "name": "",
          "type": "uint256"
        }
      ],
      "stateMutability": "view",
      "type": "function"
    },
    {
      "inputs": [],
      "name": "STATUS_ALLOWLIST",
      "outputs": [
        {
          "internalType": "uint256",
          "name": "",
          "type": "uint256"
        }
      ],
      "stateMutability": "view",
      "type": "function"
    },
    {
      "inputs": [],
      "name": "STATUS_INIT",
      "outputs": [
        {
          "internalType": "uint256",
          "name": "",
          "type": "uint256"
        }
      ],
      "stateMutability": "view",
      "type": "function"
    },
    {
      "inputs": [],
      "name": "STATUS_PUBLICSALE",
      "outputs": [
        {
          "internalType": "uint256",
          "name": "",
          "type": "uint256"
        }
      ],
      "stateMutability": "view",
      "type": "function"
    },
    {
      "inputs": [
        {
          "internalType": "bytes32[]",
          "name": "_merkleProof",
          "type": "bytes32[]"
        }
      ],
      "name": "airdropClaim",
      "outputs": [],
      "stateMutability": "nonpayable",
      "type": "function"
    },
    {
      "inputs": [],
      "name": "airdropMerkleRoot",
      "outputs": [
        {
          "internalType": "bytes32",
          "name": "",
          "type": "bytes32"
        }
      ],
      "stateMutability": "view",
      "type": "function"
    },
    {
      "inputs": [
        {
          "internalType": "address",
          "name": "",
          "type": "address"
        }
      ],
      "name": "airdroplistClaimed",
      "outputs": [
        {
          "internalType": "bool",
          "name": "",
          "type": "bool"
        }
      ],
      "stateMutability": "view",
      "type": "function"
    },
    {
      "inputs": [],
      "name": "allowlistMerkleRoot",
      "outputs": [
        {
          "internalType": "bytes32",
          "name": "",
          "type": "bytes32"
        }
      ],
      "stateMutability": "view",
      "type": "function"
    },
    {
      "inputs": [
        {
          "internalType": "address",
          "name": "",
          "type": "address"
        }
      ],
      "name": "allowlistMinted",
      "outputs": [
        {
          "internalType": "bool",
          "name": "",
          "type": "bool"
        }
      ],
      "stateMutability": "view",
      "type": "function"
    },
    {
      "inputs": [
        {
          "internalType": "uint256",
          "name": "_quantity",
          "type": "uint256"
        },
        {
          "internalType": "bytes32[]",
          "name": "_merkleProof",
          "type": "bytes32[]"
        }
      ],
      "name": "allowlistSale",
      "outputs": [],
      "stateMutability": "payable",
      "type": "function"
    },
    {
      "inputs": [
        {
          "internalType": "address",
          "name": "to",
          "type": "address"
        },
        {
          "internalType": "uint256",
          "name": "tokenId",
          "type": "uint256"
        }
      ],
      "name": "approve",
      "outputs": [],
      "stateMutability": "nonpayable",
      "type": "function"
    },
    {
      "inputs": [
        {
          "internalType": "address",
          "name": "owner",
          "type": "address"
        }
      ],
      "name": "balanceOf",
      "outputs": [
        {
          "internalType": "uint256",
          "name": "",
          "type": "uint256"
        }
      ],
      "stateMutability": "view",
      "type": "function"
    },
    {
      "inputs": [],
      "name": "baseURI",
      "outputs": [
        {
          "internalType": "string",
          "name": "",
          "type": "string"
        }
      ],
      "stateMutability": "view",
      "type": "function"
    },
    {
      "inputs": [
        {
          "internalType": "uint256",
          "name": "tokenId",
          "type": "uint256"
        }
      ],
      "name": "getApproved",
      "outputs": [
        {
          "internalType": "address",
          "name": "",
          "type": "address"
        }
      ],
      "stateMutability": "view",
      "type": "function"
    },
    {
      "inputs": [
        {
          "internalType": "address",
          "name": "owner",
          "type": "address"
        },
        {
          "internalType": "address",
          "name": "operator",
          "type": "address"
        }
      ],
      "name": "isApprovedForAll",
      "outputs": [
        {
          "internalType": "bool",
          "name": "",
          "type": "bool"
        }
      ],
      "stateMutability": "view",
      "type": "function"
    },
    {
      "inputs": [],
      "name": "mintedAmount",
      "outputs": [
        {
          "internalType": "uint256",
          "name": "",
          "type": "uint256"
        }
      ],
      "stateMutability": "view",
      "type": "function"
    },
    {
      "inputs": [
        {
          "internalType": "address",
          "name": "",
          "type": "address"
        }
      ],
      "name": "mintedOnPublic",
      "outputs": [
        {
          "internalType": "uint256",
          "name": "",
          "type": "uint256"
        }
      ],
      "stateMutability": "view",
      "type": "function"
    },
    {
      "inputs": [],
      "name": "name",
      "outputs": [
        {
          "internalType": "string",
          "name": "",
          "type": "string"
        }
      ],
      "stateMutability": "view",
      "type": "function"
    },
    {
      "inputs": [],
      "name": "owner",
      "outputs": [
        {
          "internalType": "address",
          "name": "",
          "type": "address"
        }
      ],
      "stateMutability": "view",
      "type": "function"
    },
    {
      "inputs": [
        {
          "internalType": "address",
          "name": "_user",
          "type": "address"
        },
        {
          "internalType": "uint256",
          "name": "_quantity",
          "type": "uint256"
        }
      ],
      "name": "ownerMint",
      "outputs": [],
      "stateMutability": "nonpayable",
      "type": "function"
    },
    {
      "inputs": [
        {
          "internalType": "uint256",
          "name": "tokenId",
          "type": "uint256"
        }
      ],
      "name": "ownerOf",
      "outputs": [
        {
          "internalType": "address",
          "name": "",
          "type": "address"
        }
      ],
      "stateMutability": "view",
      "type": "function"
    },
    {
      "inputs": [
        {
          "internalType": "uint256",
          "name": "_quantity",
          "type": "uint256"
        }
      ],
      "name": "publicSale",
      "outputs": [],
      "stateMutability": "payable",
      "type": "function"
    },
    {
      "inputs": [],
      "name": "renounceOwnership",
      "outputs": [],
      "stateMutability": "nonpayable",
      "type": "function"
    },
    {
      "inputs": [
        {
          "internalType": "address",
          "name": "from",
          "type": "address"
        },
        {
          "internalType": "address",
          "name": "to",
          "type": "address"
        },
        {
          "internalType": "uint256",
          "name": "tokenId",
          "type": "uint256"
        }
      ],
      "name": "safeTransferFrom",
      "outputs": [],
      "stateMutability": "nonpayable",
      "type": "function"
    },
    {
      "inputs": [
        {
          "internalType": "address",
          "name": "from",
          "type": "address"
        },
        {
          "internalType": "address",
          "name": "to",
          "type": "address"
        },
        {
          "internalType": "uint256",
          "name": "tokenId",
          "type": "uint256"
        },
        {
          "internalType": "bytes",
          "name": "_data",
          "type": "bytes"
        }
      ],
      "name": "safeTransferFrom",
      "outputs": [],
      "stateMutability": "nonpayable",
      "type": "function"
    },
    {
      "inputs": [
        {
          "internalType": "bytes32",
          "name": "_merkleRoot",
          "type": "bytes32"
        }
      ],
      "name": "setAirdropMerkleRoot",
      "outputs": [],
      "stateMutability": "nonpayable",
      "type": "function"
    },
    {
      "inputs": [
        {
          "internalType": "bytes32",
          "name": "_merkleRoot",
          "type": "bytes32"
        }
      ],
      "name": "setAllowlistMerkleRoot",
      "outputs": [],
      "stateMutability": "nonpayable",
      "type": "function"
    },
    {
      "inputs": [
        {
          "internalType": "address",
          "name": "operator",
          "type": "address"
        },
        {
          "internalType": "bool",
          "name": "approved",
          "type": "bool"
        }
      ],
      "name": "setApprovalForAll",
      "outputs": [],
      "stateMutability": "nonpayable",
      "type": "function"
    },
    {
      "inputs": [
        {
          "internalType": "string",
          "name": "baseURI_",
          "type": "string"
        }
      ],
      "name": "setBaseURI",
      "outputs": [],
      "stateMutability": "nonpayable",
      "type": "function"
    },
    {
      "inputs": [
        {
          "internalType": "address",
          "name": "_deg",
          "type": "address"
        }
      ],
      "name": "setDEG",
      "outputs": [],
      "stateMutability": "nonpayable",
      "type": "function"
    },
    {
      "inputs": [
        {
          "internalType": "uint256",
          "name": "_newStatus",
          "type": "uint256"
        }
      ],
      "name": "setStatus",
      "outputs": [],
      "stateMutability": "nonpayable",
      "type": "function"
    },
    {
      "inputs": [],
      "name": "status",
      "outputs": [
        {
          "internalType": "uint256",
          "name": "",
          "type": "uint256"
        }
      ],
      "stateMutability": "view",
      "type": "function"
    },
    {
      "inputs": [
        {
          "internalType": "bytes4",
          "name": "interfaceId",
          "type": "bytes4"
        }
      ],
      "name": "supportsInterface",
      "outputs": [
        {
          "internalType": "bool",
          "name": "",
          "type": "bool"
        }
      ],
      "stateMutability": "view",
      "type": "function"
    },
    {
      "inputs": [],
      "name": "symbol",
      "outputs": [
        {
          "internalType": "string",
          "name": "",
          "type": "string"
        }
      ],
      "stateMutability": "view",
      "type": "function"
    },
    {
      "inputs": [
        {
          "internalType": "uint256",
          "name": "tokenId",
          "type": "uint256"
        }
      ],
      "name": "tokenURI",
      "outputs": [
        {
          "internalType": "string",
          "name": "",
          "type": "string"
        }
      ],
      "stateMutability": "view",
      "type": "function"
    },
    {
      "inputs": [
        {
          "internalType": "address",
          "name": "from",
          "type": "address"
        },
        {
          "internalType": "address",
          "name": "to",
          "type": "address"
        },
        {
          "internalType": "uint256",
          "name": "tokenId",
          "type": "uint256"
        }
      ],
      "name": "transferFrom",
      "outputs": [],
      "stateMutability": "nonpayable",
      "type": "function"
    },
    {
      "inputs": [
        {
          "internalType": "address",
          "name": "newOwner",
          "type": "address"
        }
      ],
      "name": "transferOwnership",
      "outputs": [],
      "stateMutability": "nonpayable",
      "type": "function"
    },
    {
      "inputs": [],
      "name": "withdraw",
      "outputs": [],
      "stateMutability": "nonpayable",
      "type": "function"
    },
    {
      "inputs": [
        {
          "internalType": "address",
          "name": "_token",
          "type": "address"
        },
        {
          "internalType": "uint256",
          "name": "_amount",
          "type": "uint256"
        }
      ],
      "name": "withdrawERC20",
      "outputs": [],
      "stateMutability": "nonpayable",
      "type": "function"
    }
  ],
  "transactionHash": "0x694a3ff6390857cdb4f7e3e5a8b0f45a6c489d56d5f0faa74f573d3a62a9601c",
  "args": [
    "0x063729Efb831B8fE06dD4e46b4c11cC3e7be6DB9"
  ],
  "numDeployments": 2,
  "solcInputHash": "95d93d57658a4d80947470cd5607e416",
  "bytecode": "0x60806040523480156200001157600080fd5b50604051620030fb380380620030fb8339810160408190526200003491620001cc565b604080518082018252600880825267111959da5cd3919560c21b602080840182815285518087019096529285528401528151919291620000779160009162000126565b5080516200008d90600190602084019062000126565b505050620000aa620000a4620000d060201b60201c565b620000d4565b600780546001600160a01b0319166001600160a01b03929092169190911790556200023a565b3390565b600680546001600160a01b038381166001600160a01b0319831681179093556040519116919082907f8be0079c531659141344cd1fd0a4f28419497f9722a3daafe3b4186f6b6457e090600090a35050565b8280546200013490620001fe565b90600052602060002090601f016020900481019282620001585760008555620001a3565b82601f106200017357805160ff1916838001178555620001a3565b82800160010185558215620001a3579182015b82811115620001a357825182559160200191906001019062000186565b50620001b1929150620001b5565b5090565b5b80821115620001b15760008155600101620001b6565b600060208284031215620001df57600080fd5b81516001600160a01b0381168114620001f757600080fd5b9392505050565b600181811c908216806200021357607f821691505b6020821081036200023457634e487b7160e01b600052602260045260246000fd5b50919050565b612eb1806200024a6000396000f3fe6080604052600436106102f25760003560e01c80638059f60e1161018f578063c87b56dd116100e1578063e81ed0441161008a578063f7d4b1d311610064578063f7d4b1d3146107f5578063f95df41414610815578063fb4bcd4f1461083557600080fd5b8063e81ed0441461075c578063e985e9c51461078c578063f2fde38b146107d557600080fd5b8063e231c19a116100bb578063e231c19a14610709578063e3b93b601461071c578063e6c6f28a1461073c57600080fd5b8063c87b56dd1461069f578063d230e45b146106bf578063e0509b8a146106ec57600080fd5b80639e46c86e11610143578063a5ce30d21161011d578063a5ce30d214610656578063b287c8ed1461066c578063b88d4fde1461067f57600080fd5b80639e46c86e14610601578063a1db978214610616578063a22cb4651461063657600080fd5b80638daa1fc4116101745780638daa1fc4146105a757806390cc02d7146105bc57806395d89b41146105ec57600080fd5b80638059f60e146105745780638da5cb5b1461058957600080fd5b8063450b821c116102485780636352211e116101fc5780636c0360eb116101d65780636c0360eb1461052a57806370a082311461053f578063715018a61461055f57600080fd5b80636352211e146104cd57806364cac1b0146104ed57806369ba1a751461050a57600080fd5b8063484b973c1161022d578063484b973c1461047857806355f804b3146104985780635ec1bdb2146104b857600080fd5b8063450b821c1461046357806345ba6e551461046357600080fd5b806323b872dd116102aa57806332cb6b0c1161028457806332cb6b0c146104185780633ccfd60b1461042e57806342842e0e1461044357600080fd5b806323b872dd146103cc578063293108e0146103ec5780632d3802421461040257600080fd5b8063081812fc116102db578063081812fc1461034e578063095ea7b314610386578063200d2ed2146103a857600080fd5b806301ffc9a7146102f757806306fdde031461032c575b600080fd5b34801561030357600080fd5b5061031761031236600461288c565b610855565b60405190151581526020015b60405180910390f35b34801561033857600080fd5b506103416108f2565b6040516103239190612901565b34801561035a57600080fd5b5061036e610369366004612914565b610984565b6040516001600160a01b039091168152602001610323565b34801561039257600080fd5b506103a66103a1366004612949565b610a1e565b005b3480156103b457600080fd5b506103be60085481565b604051908152602001610323565b3480156103d857600080fd5b506103a66103e7366004612973565b610b4f565b3480156103f857600080fd5b506103be600f5481565b34801561040e57600080fd5b506103be60095481565b34801561042457600080fd5b506103be6101f481565b34801561043a57600080fd5b506103a6610bd6565b34801561044f57600080fd5b506103a661045e366004612973565b610c5f565b34801561046f57600080fd5b506103be600381565b34801561048457600080fd5b506103a6610493366004612949565b610c7a565b3480156104a457600080fd5b506103a66104b33660046129af565b610d35565b3480156104c457600080fd5b506103be600181565b3480156104d957600080fd5b5061036e6104e8366004612914565b610dd9565b3480156104f957600080fd5b506103be680ad78ebc5ac620000081565b34801561051657600080fd5b506103a6610525366004612914565b610e64565b34801561053657600080fd5b50610341610eff565b34801561054b57600080fd5b506103be61055a366004612a21565b610f8d565b34801561056b57600080fd5b506103a6611027565b34801561058057600080fd5b506103be600081565b34801561059557600080fd5b506006546001600160a01b031661036e565b3480156105b357600080fd5b506103be600581565b3480156105c857600080fd5b506103176105d7366004612a21565b600b6020526000908152604090205460ff1681565b3480156105f857600080fd5b5061034161108d565b34801561060d57600080fd5b506103be600281565b34801561062257600080fd5b506103a6610631366004612949565b61109c565b34801561064257600080fd5b506103a6610651366004612a4a565b6111c8565b34801561066257600080fd5b506103be600e5481565b6103a661067a366004612914565b6111d3565b34801561068b57600080fd5b506103a661069a366004612a97565b6113dc565b3480156106ab57600080fd5b506103416106ba366004612914565b61146a565b3480156106cb57600080fd5b506103be6106da366004612a21565b600c6020526000908152604090205481565b3480156106f857600080fd5b506103be68056bc75e2d6310000081565b6103a6610717366004612bbf565b611553565b34801561072857600080fd5b5060075461036e906001600160a01b031681565b34801561074857600080fd5b506103a6610757366004612c0b565b6117b5565b34801561076857600080fd5b50610317610777366004612a21565b600a6020526000908152604090205460ff1681565b34801561079857600080fd5b506103176107a7366004612c4d565b6001600160a01b03918216600090815260056020908152604080832093909416825291909152205460ff1690565b3480156107e157600080fd5b506103a66107f0366004612a21565b611973565b34801561080157600080fd5b506103a6610810366004612a21565b611a52565b34801561082157600080fd5b506103a6610830366004612914565b611b24565b34801561084157600080fd5b506103a6610850366004612914565b611b83565b60006001600160e01b031982167f80ac58cd0000000000000000000000000000000000000000000000000000000014806108b857506001600160e01b031982167f5b5e139f00000000000000000000000000000000000000000000000000000000145b806108ec57507f01ffc9a7000000000000000000000000000000000000000000000000000000006001600160e01b03198316145b92915050565b60606000805461090190612c80565b80601f016020809104026020016040519081016040528092919081815260200182805461092d90612c80565b801561097a5780601f1061094f5761010080835404028352916020019161097a565b820191906000526020600020905b81548152906001019060200180831161095d57829003601f168201915b5050505050905090565b6000818152600260205260408120546001600160a01b0316610a025760405162461bcd60e51b815260206004820152602c60248201527f4552433732313a20617070726f76656420717565727920666f72206e6f6e657860448201526b34b9ba32b73a103a37b5b2b760a11b60648201526084015b60405180910390fd5b506000908152600460205260409020546001600160a01b031690565b6000610a2982610dd9565b9050806001600160a01b0316836001600160a01b031603610ab25760405162461bcd60e51b815260206004820152602160248201527f4552433732313a20617070726f76616c20746f2063757272656e74206f776e6560448201527f720000000000000000000000000000000000000000000000000000000000000060648201526084016109f9565b336001600160a01b0382161480610ace5750610ace81336107a7565b610b405760405162461bcd60e51b815260206004820152603860248201527f4552433732313a20617070726f76652063616c6c6572206973206e6f74206f7760448201527f6e6572206e6f7220617070726f76656420666f7220616c6c000000000000000060648201526084016109f9565b610b4a8383611be2565b505050565b610b593382611c50565b610bcb5760405162461bcd60e51b815260206004820152603160248201527f4552433732313a207472616e736665722063616c6c6572206973206e6f74206f60448201527f776e6572206e6f7220617070726f76656400000000000000000000000000000060648201526084016109f9565b610b4a838383611d47565b6006546001600160a01b03163314610c305760405162461bcd60e51b815260206004820181905260248201527f4f776e61626c653a2063616c6c6572206973206e6f7420746865206f776e657260448201526064016109f9565b60405133904780156108fc02916000818181858888f19350505050158015610c5c573d6000803e3d6000fd5b50565b610b4a838383604051806020016040528060008152506113dc565b6006546001600160a01b03163314610cd45760405162461bcd60e51b815260206004820181905260248201527f4f776e61626c653a2063616c6c6572206973206e6f7420746865206f776e657260448201526064016109f9565b6101f460095410610d275760405162461bcd60e51b815260206004820152601160248201527f457863656564206d617820737570706c7900000000000000000000000000000060448201526064016109f9565b610d318282611f14565b5050565b6006546001600160a01b03163314610d8f5760405162461bcd60e51b815260206004820181905260248201527f4f776e61626c653a2063616c6c6572206973206e6f7420746865206f776e657260448201526064016109f9565b610d9b600d83836127dd565b507f23c8c9488efebfd474e85a7956de6f39b17c7ab88502d42a623db2d8e382bbaa8282604051610dcd929190612cba565b60405180910390a15050565b6000818152600260205260408120546001600160a01b0316806108ec5760405162461bcd60e51b815260206004820152602960248201527f4552433732313a206f776e657220717565727920666f72206e6f6e657869737460448201527f656e7420746f6b656e000000000000000000000000000000000000000000000060648201526084016109f9565b6006546001600160a01b03163314610ebe5760405162461bcd60e51b815260206004820181905260248201527f4f776e61626c653a2063616c6c6572206973206e6f7420746865206f776e657260448201526064016109f9565b60085460408051918252602082018390527f56b9afb61e8f2d641ea3720177708bb45f21f4066b16985d7d89b0152ae99109910160405180910390a1600855565b600d8054610f0c90612c80565b80601f0160208091040260200160405190810160405280929190818152602001828054610f3890612c80565b8015610f855780601f10610f5a57610100808354040283529160200191610f85565b820191906000526020600020905b815481529060010190602001808311610f6857829003601f168201915b505050505081565b60006001600160a01b03821661100b5760405162461bcd60e51b815260206004820152602a60248201527f4552433732313a2062616c616e636520717565727920666f7220746865207a6560448201527f726f20616464726573730000000000000000000000000000000000000000000060648201526084016109f9565b506001600160a01b031660009081526003602052604090205490565b6006546001600160a01b031633146110815760405162461bcd60e51b815260206004820181905260248201527f4f776e61626c653a2063616c6c6572206973206e6f7420746865206f776e657260448201526064016109f9565b61108b6000611f4c565b565b60606001805461090190612c80565b6006546001600160a01b031633146110f65760405162461bcd60e51b815260206004820181905260248201527f4f776e61626c653a2063616c6c6572206973206e6f7420746865206f776e657260448201526064016109f9565b6040517fa9059cbb000000000000000000000000000000000000000000000000000000008152336004820152602481018290526001600160a01b0383169063a9059cbb906044016020604051808303816000875af115801561115c573d6000803e3d6000fd5b505050506040513d601f19601f820116820180604052508101906111809190612ce9565b50604080518281523360208201526001600160a01b038416917f15e848750ab66cd66f07bebaf8dab757d6d4af0895afc4ff867f35baf163ee2d910160405180910390a25050565b610d31338383611f9e565b6003600854146112255760405162461bcd60e51b815260206004820152601860248201527f4e6f7420696e207075626c69632073616c65207068617365000000000000000060448201526064016109f9565b3233146112745760405162461bcd60e51b815260206004820152601560248201527f4e6f2070726f7879207472616e73616374696f6e73000000000000000000000060448201526064016109f9565b336000908152600c602052604090205460056112908383612d1c565b11156112de5760405162461bcd60e51b815260206004820152601e60248201527f4d6178207075626c69632073616c6520616d6f756e742072656163686564000060448201526064016109f9565b6009546101f4906112ef8484612d1c565b6112f99190612d1c565b11156113475760405162461bcd60e51b815260206004820152601760248201527f4d6178206d696e7420737570706c79207265616368656400000000000000000060448201526064016109f9565b600061135c680ad78ebc5ac620000084612d34565b600754909150611377906001600160a01b031633308461206c565b6113813384611f14565b336000818152600c6020908152604091829020805487019055600954825193845290830186905282820152517fa2efc6778c940a746d73c12a5ddad09940a78a6aeb5a42797127bfe6aeeef39d9181900360600190a1505050565b6113e63383611c50565b6114585760405162461bcd60e51b815260206004820152603160248201527f4552433732313a207472616e736665722063616c6c6572206973206e6f74206f60448201527f776e6572206e6f7220617070726f76656400000000000000000000000000000060648201526084016109f9565b611464848484846120f4565b50505050565b6000818152600260205260409020546060906001600160a01b03166114f75760405162461bcd60e51b815260206004820152602f60248201527f4552433732314d657461646174613a2055524920717565727920666f72206e6f60448201527f6e6578697374656e7420746f6b656e000000000000000000000000000000000060648201526084016109f9565b600061150161217d565b90506000815111611521576040518060200160405280600081525061154c565b8061152b8461218c565b60405160200161153c929190612d53565b6040516020818303038152906040525b9392505050565b6002600854146115a55760405162461bcd60e51b815260206004820152601b60248201527f4e6f7420696e20616c6c6f776c6973742073616c65207068617365000000000060448201526064016109f9565b336000908152600a602052604090205460ff16156116055760405162461bcd60e51b815260206004820152600e60248201527f616c7265616479206d696e74656400000000000000000000000000000000000060448201526064016109f9565b60038311156116565760405162461bcd60e51b815260206004820152600f60248201527f546f6f206d616e7920746f6b656e73000000000000000000000000000000000060448201526064016109f9565b6116cc82828080602002602001604051908101604052809392919081815260200183836020028082843760009201919091525050600f546040516bffffffffffffffffffffffff193360601b16602082015290925060340190505b604051602081830303815290604052805190602001206122c1565b6117185760405162461bcd60e51b815260206004820152601460248201527f696e76616c6964206d65726b6c652070726f6f6600000000000000000000000060448201526064016109f9565b600061172d68056bc75e2d6310000085612d34565b600754909150611748906001600160a01b031633308461206c565b6117523385611f14565b336000818152600a6020908152604091829020805460ff191660011790556009548251938452908301879052908201527f5c69c6e855353a0556631b5f9b4e9d473e0f998841415d05f95dd6989faa869e9060600160405180910390a150505050565b6001600854146118075760405162461bcd60e51b815260206004820152601460248201527f4e6f7420696e2061697264726f7020706861736500000000000000000000000060448201526064016109f9565b336000908152600b602052604090205460ff16156118675760405162461bcd60e51b815260206004820152600f60248201527f616c726561647920636c61696d6564000000000000000000000000000000000060448201526064016109f9565b6118c682828080602002602001604051908101604052809392919081815260200183836020028082843760009201919091525050600e546040516bffffffffffffffffffffffff193360601b16602082015290925060340190506116b1565b6119125760405162461bcd60e51b815260206004820152601460248201527f696e76616c6964206d65726b6c652070726f6f6600000000000000000000000060448201526064016109f9565b336000818152600b60205260409020805460ff191660019081179091556119399190611f14565b6009546040805133815260208101929092527f0109d8fbd8363b83a5fa0c0f8dfbed54c793803139c404e89bf3697f66bdc5059101610dcd565b6006546001600160a01b031633146119cd5760405162461bcd60e51b815260206004820181905260248201527f4f776e61626c653a2063616c6c6572206973206e6f7420746865206f776e657260448201526064016109f9565b6001600160a01b038116611a495760405162461bcd60e51b815260206004820152602660248201527f4f776e61626c653a206e6577206f776e657220697320746865207a65726f206160448201527f646472657373000000000000000000000000000000000000000000000000000060648201526084016109f9565b610c5c81611f4c565b6006546001600160a01b03163314611aac5760405162461bcd60e51b815260206004820181905260248201527f4f776e61626c653a2063616c6c6572206973206e6f7420746865206f776e657260448201526064016109f9565b6001600160a01b038116611b025760405162461bcd60e51b815260206004820152600c60248201527f5a65726f2061646472657373000000000000000000000000000000000000000060448201526064016109f9565b600780546001600160a01b0319166001600160a01b0392909216919091179055565b6006546001600160a01b03163314611b7e5760405162461bcd60e51b815260206004820181905260248201527f4f776e61626c653a2063616c6c6572206973206e6f7420746865206f776e657260448201526064016109f9565b600f55565b6006546001600160a01b03163314611bdd5760405162461bcd60e51b815260206004820181905260248201527f4f776e61626c653a2063616c6c6572206973206e6f7420746865206f776e657260448201526064016109f9565b600e55565b600081815260046020526040902080546001600160a01b0319166001600160a01b0384169081179091558190611c1782610dd9565b6001600160a01b03167f8c5be1e5ebec7d5bd14f71427d1e84f3dd0314c0f7b2291e5b200ac8c7c3b92560405160405180910390a45050565b6000818152600260205260408120546001600160a01b0316611cc95760405162461bcd60e51b815260206004820152602c60248201527f4552433732313a206f70657261746f7220717565727920666f72206e6f6e657860448201526b34b9ba32b73a103a37b5b2b760a11b60648201526084016109f9565b6000611cd483610dd9565b9050806001600160a01b0316846001600160a01b03161480611d1b57506001600160a01b0380821660009081526005602090815260408083209388168352929052205460ff165b80611d3f5750836001600160a01b0316611d3484610984565b6001600160a01b0316145b949350505050565b826001600160a01b0316611d5a82610dd9565b6001600160a01b031614611dd65760405162461bcd60e51b815260206004820152602560248201527f4552433732313a207472616e736665722066726f6d20696e636f72726563742060448201527f6f776e657200000000000000000000000000000000000000000000000000000060648201526084016109f9565b6001600160a01b038216611e515760405162461bcd60e51b8152602060048201526024808201527f4552433732313a207472616e7366657220746f20746865207a65726f2061646460448201527f726573730000000000000000000000000000000000000000000000000000000060648201526084016109f9565b611e5c600082611be2565b6001600160a01b0383166000908152600360205260408120805460019290611e85908490612d82565b90915550506001600160a01b0382166000908152600360205260408120805460019290611eb3908490612d1c565b909155505060008181526002602052604080822080546001600160a01b0319166001600160a01b0386811691821790925591518493918716917fddf252ad1be2c89b69c2b068fc378daa952ba7f163c4a11628f55a4df523b3ef91a4505050565b60095460015b828111611f3e57611f3684611f2e84612d99565b9350836122d7565b600101611f1a565b505060098054909101905550565b600680546001600160a01b038381166001600160a01b0319831681179093556040519116919082907f8be0079c531659141344cd1fd0a4f28419497f9722a3daafe3b4186f6b6457e090600090a35050565b816001600160a01b0316836001600160a01b031603611fff5760405162461bcd60e51b815260206004820152601960248201527f4552433732313a20617070726f766520746f2063616c6c65720000000000000060448201526064016109f9565b6001600160a01b03838116600081815260056020908152604080832094871680845294825291829020805460ff191686151590811790915591519182527f17307eab39ab6107e8899845ad3d59bd9653f200f220920489ca2b5937696c31910160405180910390a3505050565b604080516001600160a01b0385811660248301528416604482015260648082018490528251808303909101815260849091019091526020810180517bffffffffffffffffffffffffffffffffffffffffffffffffffffffff167f23b872dd00000000000000000000000000000000000000000000000000000000179052611464908590612419565b6120ff848484611d47565b61210b848484846124fe565b6114645760405162461bcd60e51b815260206004820152603260248201527f4552433732313a207472616e7366657220746f206e6f6e20455243373231526560448201527f63656976657220696d706c656d656e746572000000000000000000000000000060648201526084016109f9565b6060600d805461090190612c80565b6060816000036121cf57505060408051808201909152600181527f3000000000000000000000000000000000000000000000000000000000000000602082015290565b8160005b81156121f957806121e381612d99565b91506121f29050600a83612dc8565b91506121d3565b60008167ffffffffffffffff81111561221457612214612a81565b6040519080825280601f01601f19166020018201604052801561223e576020820181803683370190505b5090505b8415611d3f57612253600183612d82565b9150612260600a86612ddc565b61226b906030612d1c565b60f81b81838151811061228057612280612df0565b60200101907effffffffffffffffffffffffffffffffffffffffffffffffffffffffffffff1916908160001a9053506122ba600a86612dc8565b9450612242565b6000826122ce8584612655565b14949350505050565b6001600160a01b03821661232d5760405162461bcd60e51b815260206004820181905260248201527f4552433732313a206d696e7420746f20746865207a65726f206164647265737360448201526064016109f9565b6000818152600260205260409020546001600160a01b0316156123925760405162461bcd60e51b815260206004820152601c60248201527f4552433732313a20746f6b656e20616c7265616479206d696e7465640000000060448201526064016109f9565b6001600160a01b03821660009081526003602052604081208054600192906123bb908490612d1c565b909155505060008181526002602052604080822080546001600160a01b0319166001600160a01b03861690811790915590518392907fddf252ad1be2c89b69c2b068fc378daa952ba7f163c4a11628f55a4df523b3ef908290a45050565b600061246e826040518060400160405280602081526020017f5361666545524332303a206c6f772d6c6576656c2063616c6c206661696c6564815250856001600160a01b03166126c99092919063ffffffff16565b805190915015610b4a578080602001905181019061248c9190612ce9565b610b4a5760405162461bcd60e51b815260206004820152602a60248201527f5361666545524332303a204552433230206f7065726174696f6e20646964206e60448201527f6f7420737563636565640000000000000000000000000000000000000000000060648201526084016109f9565b60006001600160a01b0384163b1561264a57604051630a85bd0160e11b81526001600160a01b0385169063150b7a0290612542903390899088908890600401612e06565b6020604051808303816000875af192505050801561257d575060408051601f3d908101601f1916820190925261257a91810190612e42565b60015b612630573d8080156125ab576040519150601f19603f3d011682016040523d82523d6000602084013e6125b0565b606091505b5080516000036126285760405162461bcd60e51b815260206004820152603260248201527f4552433732313a207472616e7366657220746f206e6f6e20455243373231526560448201527f63656976657220696d706c656d656e746572000000000000000000000000000060648201526084016109f9565b805181602001fd5b6001600160e01b031916630a85bd0160e11b149050611d3f565b506001949350505050565b600081815b84518110156126c157600085828151811061267757612677612df0565b6020026020010151905080831161269d57600083815260208290526040902092506126ae565b600081815260208490526040902092505b50806126b981612d99565b91505061265a565b509392505050565b6060611d3f8484600085856001600160a01b0385163b61272b5760405162461bcd60e51b815260206004820152601d60248201527f416464726573733a2063616c6c20746f206e6f6e2d636f6e747261637400000060448201526064016109f9565b600080866001600160a01b031685876040516127479190612e5f565b60006040518083038185875af1925050503d8060008114612784576040519150601f19603f3d011682016040523d82523d6000602084013e612789565b606091505b50915091506127998282866127a4565b979650505050505050565b606083156127b357508161154c565b8251156127c35782518084602001fd5b8160405162461bcd60e51b81526004016109f99190612901565b8280546127e990612c80565b90600052602060002090601f01602090048101928261280b5760008555612851565b82601f106128245782800160ff19823516178555612851565b82800160010185558215612851579182015b82811115612851578235825591602001919060010190612836565b5061285d929150612861565b5090565b5b8082111561285d5760008155600101612862565b6001600160e01b031981168114610c5c57600080fd5b60006020828403121561289e57600080fd5b813561154c81612876565b60005b838110156128c45781810151838201526020016128ac565b838111156114645750506000910152565b600081518084526128ed8160208601602086016128a9565b601f01601f19169290920160200192915050565b60208152600061154c60208301846128d5565b60006020828403121561292657600080fd5b5035919050565b80356001600160a01b038116811461294457600080fd5b919050565b6000806040838503121561295c57600080fd5b6129658361292d565b946020939093013593505050565b60008060006060848603121561298857600080fd5b6129918461292d565b925061299f6020850161292d565b9150604084013590509250925092565b600080602083850312156129c257600080fd5b823567ffffffffffffffff808211156129da57600080fd5b818501915085601f8301126129ee57600080fd5b8135818111156129fd57600080fd5b866020828501011115612a0f57600080fd5b60209290920196919550909350505050565b600060208284031215612a3357600080fd5b61154c8261292d565b8015158114610c5c57600080fd5b60008060408385031215612a5d57600080fd5b612a668361292d565b91506020830135612a7681612a3c565b809150509250929050565b634e487b7160e01b600052604160045260246000fd5b60008060008060808587031215612aad57600080fd5b612ab68561292d565b9350612ac46020860161292d565b925060408501359150606085013567ffffffffffffffff80821115612ae857600080fd5b818701915087601f830112612afc57600080fd5b813581811115612b0e57612b0e612a81565b604051601f8201601f19908116603f01168101908382118183101715612b3657612b36612a81565b816040528281528a6020848701011115612b4f57600080fd5b82602086016020830137600060208483010152809550505050505092959194509250565b60008083601f840112612b8557600080fd5b50813567ffffffffffffffff811115612b9d57600080fd5b6020830191508360208260051b8501011115612bb857600080fd5b9250929050565b600080600060408486031215612bd457600080fd5b83359250602084013567ffffffffffffffff811115612bf257600080fd5b612bfe86828701612b73565b9497909650939450505050565b60008060208385031215612c1e57600080fd5b823567ffffffffffffffff811115612c3557600080fd5b612c4185828601612b73565b90969095509350505050565b60008060408385031215612c6057600080fd5b612c698361292d565b9150612c776020840161292d565b90509250929050565b600181811c90821680612c9457607f821691505b602082108103612cb457634e487b7160e01b600052602260045260246000fd5b50919050565b60208152816020820152818360408301376000818301604090810191909152601f909201601f19160101919050565b600060208284031215612cfb57600080fd5b815161154c81612a3c565b634e487b7160e01b600052601160045260246000fd5b60008219821115612d2f57612d2f612d06565b500190565b6000816000190483118215151615612d4e57612d4e612d06565b500290565b60008351612d658184602088016128a9565b835190830190612d798183602088016128a9565b01949350505050565b600082821015612d9457612d94612d06565b500390565b600060018201612dab57612dab612d06565b5060010190565b634e487b7160e01b600052601260045260246000fd5b600082612dd757612dd7612db2565b500490565b600082612deb57612deb612db2565b500690565b634e487b7160e01b600052603260045260246000fd5b60006001600160a01b03808716835280861660208401525083604083015260806060830152612e3860808301846128d5565b9695505050505050565b600060208284031215612e5457600080fd5b815161154c81612876565b60008251612e718184602087016128a9565b919091019291505056fea2646970667358221220c35b580653be4a24afa61e99c775d67e473a604c672dfb378bc272bf7ba1e9fe64736f6c634300080d0033",
  "devdoc": {
    "kind": "dev",
    "methods": {
      "allowlistSale(uint256,bytes32[])": {
        "params": {
          "_quantity": "amount of NFTs to mint"
        }
      },
      "approve(address,uint256)": {
        "details": "See {IERC721-approve}."
      },
      "balanceOf(address)": {
        "details": "See {IERC721-balanceOf}."
      },
      "constructor": {
        "details": "The initial status is Init (default as zero)"
      },
      "getApproved(uint256)": {
        "details": "See {IERC721-getApproved}."
      },
      "isApprovedForAll(address,address)": {
        "details": "See {IERC721-isApprovedForAll}."
      },
      "name()": {
        "details": "See {IERC721Metadata-name}."
      },
      "owner()": {
        "details": "Returns the address of the current owner."
      },
      "ownerMint(address,uint256)": {
        "params": {
          "_quantity": "Amount of NFTs to mint"
        }
      },
      "ownerOf(uint256)": {
        "details": "See {IERC721-ownerOf}."
      },
      "publicSale(uint256)": {
        "params": {
          "_quantity": "amount of NFTs to mint"
        }
      },
      "renounceOwnership()": {
        "details": "Leaves the contract without owner. It will not be possible to call `onlyOwner` functions anymore. Can only be called by the current owner. NOTE: Renouncing ownership will leave the contract without an owner, thereby removing any functionality that is only available to the owner."
      },
      "safeTransferFrom(address,address,uint256)": {
        "details": "See {IERC721-safeTransferFrom}."
      },
      "safeTransferFrom(address,address,uint256,bytes)": {
        "details": "See {IERC721-safeTransferFrom}."
      },
      "setApprovalForAll(address,bool)": {
        "details": "See {IERC721-setApprovalForAll}."
      },
      "setBaseURI(string)": {
        "params": {
          "baseURI_": "New base URI for the collection"
        }
      },
      "setStatus(uint256)": {
        "details": "Only by the owner",
        "params": {
          "_newStatus": "New minting status"
        }
      },
      "supportsInterface(bytes4)": {
        "details": "See {IERC165-supportsInterface}."
      },
      "symbol()": {
        "details": "See {IERC721Metadata-symbol}."
      },
      "tokenURI(uint256)": {
        "details": "See {IERC721Metadata-tokenURI}."
      },
      "transferFrom(address,address,uint256)": {
        "details": "See {IERC721-transferFrom}."
      },
      "transferOwnership(address)": {
        "details": "Transfers ownership of the contract to a new account (`newOwner`). Can only be called by the current owner."
      },
      "withdrawERC20(address,uint256)": {
        "params": {
          "_amount": "amount to withdraw",
          "_token": "ERC20 to withdraw"
        }
      }
    },
    "version": 1
  },
  "userdoc": {
    "kind": "user",
    "methods": {
      "airdropClaim(bytes32[])": {
        "notice": "Claimable NFTs"
      },
      "allowlistSale(uint256,bytes32[])": {
        "notice": "Allowlist minting"
      },
      "constructor": {
        "notice": "Constructor"
      },
      "ownerMint(address,uint256)": {
        "notice": "Owner minting"
      },
      "publicSale(uint256)": {
        "notice": "public sale mint. Allowed to mint several times as long as total per wallet is bellow maxPublicSale"
      },
      "setBaseURI(string)": {
        "notice": "Set the base URI for the NFTs"
      },
      "setStatus(uint256)": {
        "notice": "Change minting status"
      },
      "withdraw()": {
        "notice": "Withdraw avax by the owner"
      },
      "withdrawERC20(address,uint256)": {
        "notice": "Withdraw specificed ERC20 and amount to owner"
      }
    },
    "version": 1
  },
  "storageLayout": {
    "storage": [
      {
        "astId": 1043,
        "contract": "contracts/DegisNFT.sol:DegisNFT",
        "label": "_name",
        "offset": 0,
        "slot": "0",
        "type": "t_string_storage"
      },
      {
        "astId": 1045,
        "contract": "contracts/DegisNFT.sol:DegisNFT",
        "label": "_symbol",
        "offset": 0,
        "slot": "1",
        "type": "t_string_storage"
      },
      {
        "astId": 1049,
        "contract": "contracts/DegisNFT.sol:DegisNFT",
        "label": "_owners",
        "offset": 0,
        "slot": "2",
        "type": "t_mapping(t_uint256,t_address)"
      },
      {
        "astId": 1053,
        "contract": "contracts/DegisNFT.sol:DegisNFT",
        "label": "_balances",
        "offset": 0,
        "slot": "3",
        "type": "t_mapping(t_address,t_uint256)"
      },
      {
        "astId": 1057,
        "contract": "contracts/DegisNFT.sol:DegisNFT",
        "label": "_tokenApprovals",
        "offset": 0,
        "slot": "4",
        "type": "t_mapping(t_uint256,t_address)"
      },
      {
        "astId": 1063,
        "contract": "contracts/DegisNFT.sol:DegisNFT",
        "label": "_operatorApprovals",
        "offset": 0,
        "slot": "5",
        "type": "t_mapping(t_address,t_mapping(t_address,t_bool))"
      },
      {
        "astId": 7,
        "contract": "contracts/DegisNFT.sol:DegisNFT",
        "label": "_owner",
        "offset": 0,
        "slot": "6",
        "type": "t_address"
      },
      {
        "astId": 2722,
        "contract": "contracts/DegisNFT.sol:DegisNFT",
        "label": "DEG",
        "offset": 0,
        "slot": "7",
        "type": "t_address"
      },
      {
        "astId": 2739,
        "contract": "contracts/DegisNFT.sol:DegisNFT",
        "label": "status",
        "offset": 0,
        "slot": "8",
        "type": "t_uint256"
      },
      {
        "astId": 2741,
        "contract": "contracts/DegisNFT.sol:DegisNFT",
        "label": "mintedAmount",
        "offset": 0,
        "slot": "9",
        "type": "t_uint256"
      },
      {
        "astId": 2745,
        "contract": "contracts/DegisNFT.sol:DegisNFT",
        "label": "allowlistMinted",
        "offset": 0,
        "slot": "10",
        "type": "t_mapping(t_address,t_bool)"
      },
      {
        "astId": 2749,
        "contract": "contracts/DegisNFT.sol:DegisNFT",
        "label": "airdroplistClaimed",
        "offset": 0,
        "slot": "11",
        "type": "t_mapping(t_address,t_bool)"
      },
      {
        "astId": 2753,
        "contract": "contracts/DegisNFT.sol:DegisNFT",
        "label": "mintedOnPublic",
        "offset": 0,
        "slot": "12",
        "type": "t_mapping(t_address,t_uint256)"
      },
      {
        "astId": 2755,
        "contract": "contracts/DegisNFT.sol:DegisNFT",
        "label": "baseURI",
        "offset": 0,
        "slot": "13",
        "type": "t_string_storage"
      },
      {
        "astId": 2757,
        "contract": "contracts/DegisNFT.sol:DegisNFT",
        "label": "airdropMerkleRoot",
        "offset": 0,
        "slot": "14",
        "type": "t_bytes32"
      },
      {
        "astId": 2759,
        "contract": "contracts/DegisNFT.sol:DegisNFT",
        "label": "allowlistMerkleRoot",
        "offset": 0,
        "slot": "15",
        "type": "t_bytes32"
      }
    ],
    "types": {
      "t_address": {
        "encoding": "inplace",
        "label": "address",
        "numberOfBytes": "20"
      },
      "t_bool": {
        "encoding": "inplace",
        "label": "bool",
        "numberOfBytes": "1"
      },
      "t_bytes32": {
        "encoding": "inplace",
        "label": "bytes32",
        "numberOfBytes": "32"
      },
      "t_mapping(t_address,t_bool)": {
        "encoding": "mapping",
        "key": "t_address",
        "label": "mapping(address => bool)",
        "numberOfBytes": "32",
        "value": "t_bool"
      },
      "t_mapping(t_address,t_mapping(t_address,t_bool))": {
        "encoding": "mapping",
        "key": "t_address",
        "label": "mapping(address => mapping(address => bool))",
        "numberOfBytes": "32",
        "value": "t_mapping(t_address,t_bool)"
      },
      "t_mapping(t_address,t_uint256)": {
        "encoding": "mapping",
        "key": "t_address",
        "label": "mapping(address => uint256)",
        "numberOfBytes": "32",
        "value": "t_uint256"
      },
      "t_mapping(t_uint256,t_address)": {
        "encoding": "mapping",
        "key": "t_uint256",
        "label": "mapping(uint256 => address)",
        "numberOfBytes": "32",
        "value": "t_address"
      },
      "t_string_storage": {
        "encoding": "bytes",
        "label": "string",
        "numberOfBytes": "32"
      },
      "t_uint256": {
        "encoding": "inplace",
        "label": "uint256",
        "numberOfBytes": "32"
      }
    }
  }
}