{
  "address": "0xb51867Ba56021c32984ebd1bEE1A528a2F680965",
  "abi": [
    {
      "inputs": [
        {
          "internalType": "address",
          "name": "_degisNFT",
          "type": "address"
        },
        {
          "internalType": "address",
          "name": "_veDEG",
          "type": "address"
        }
      ],
      "stateMutability": "nonpayable",
      "type": "constructor"
    },
    {
      "anonymous": false,
      "inputs": [
        {
          "indexed": true,
          "internalType": "address",
          "name": "previousOwner",
          "type": "address"
        },
        {
          "indexed": true,
          "internalType": "address",
          "name": "newOwner",
          "type": "address"
        }
      ],
      "name": "OwnershipTransferred",
      "type": "event"
    },
    {
      "anonymous": false,
      "inputs": [
        {
          "indexed": false,
          "internalType": "address",
          "name": "operator",
          "type": "address"
        },
        {
          "indexed": false,
          "internalType": "address",
          "name": "from",
          "type": "address"
        },
        {
          "indexed": false,
          "internalType": "uint256",
          "name": "tokenId",
          "type": "uint256"
        },
        {
          "indexed": false,
          "internalType": "bytes",
          "name": "data",
          "type": "bytes"
        }
      ],
      "name": "championReceived",
      "type": "event"
    },
    {
      "anonymous": false,
      "inputs": [
        {
          "indexed": false,
          "internalType": "uint256",
          "name": "tokenId",
          "type": "uint256"
        },
        {
          "indexed": false,
          "internalType": "address",
          "name": "to",
          "type": "address"
        }
      ],
      "name": "championWithdrawn",
      "type": "event"
    },
    {
      "inputs": [
        {
          "internalType": "address",
          "name": "",
          "type": "address"
        }
      ],
      "name": "champions",
      "outputs": [
        {
          "internalType": "uint256",
          "name": "",
          "type": "uint256"
        }
      ],
      "stateMutability": "view",
      "type": "function"
    },
    {
      "inputs": [],
      "name": "degisNFT",
      "outputs": [
        {
          "internalType": "contract IDegisNFT",
          "name": "",
          "type": "address"
        }
      ],
      "stateMutability": "view",
      "type": "function"
    },
    {
      "inputs": [
        {
          "internalType": "address",
          "name": "operator",
          "type": "address"
        },
        {
          "internalType": "address",
          "name": "from",
          "type": "address"
        },
        {
          "internalType": "uint256",
          "name": "tokenId",
          "type": "uint256"
        },
        {
          "internalType": "bytes",
          "name": "data",
          "type": "bytes"
        }
      ],
      "name": "onERC721Received",
      "outputs": [
        {
          "internalType": "bytes4",
          "name": "",
          "type": "bytes4"
        }
      ],
      "stateMutability": "nonpayable",
      "type": "function"
    },
    {
      "inputs": [],
      "name": "owner",
      "outputs": [
        {
          "internalType": "address",
          "name": "",
          "type": "address"
        }
      ],
      "stateMutability": "view",
      "type": "function"
    },
    {
      "inputs": [],
      "name": "renounceOwnership",
      "outputs": [],
      "stateMutability": "nonpayable",
      "type": "function"
    },
    {
      "inputs": [
        {
          "internalType": "address",
          "name": "_degisNFT",
          "type": "address"
        }
      ],
      "name": "setDegisNFTContract",
      "outputs": [],
      "stateMutability": "nonpayable",
      "type": "function"
    },
    {
      "inputs": [
        {
          "internalType": "address",
          "name": "_veDeg",
          "type": "address"
        }
      ],
      "name": "setVeDEG",
      "outputs": [],
      "stateMutability": "nonpayable",
      "type": "function"
    },
    {
      "inputs": [
        {
          "internalType": "uint256",
          "name": "_tokenId",
          "type": "uint256"
        }
      ],
      "name": "stake",
      "outputs": [],
      "stateMutability": "nonpayable",
      "type": "function"
    },
    {
      "inputs": [
        {
          "internalType": "address",
          "name": "newOwner",
          "type": "address"
        }
      ],
      "name": "transferOwnership",
      "outputs": [],
      "stateMutability": "nonpayable",
      "type": "function"
    },
    {
      "inputs": [],
      "name": "veDEG",
      "outputs": [
        {
          "internalType": "contract IVeDEG",
          "name": "",
          "type": "address"
        }
      ],
      "stateMutability": "view",
      "type": "function"
    },
    {
      "inputs": [
        {
          "internalType": "uint256",
          "name": "_tokenId",
          "type": "uint256"
        }
      ],
      "name": "withdraw",
      "outputs": [],
      "stateMutability": "nonpayable",
      "type": "function"
    }
  ],
  "transactionHash": "0x4ff3442687326e9db3225531288a275e97f8b17eae0482b80f4bfa7945045006",
  "args": [
    "0x063729Efb831B8fE06dD4e46b4c11cC3e7be6DB9",
    "0xF5774cFaE63e5AEc81CFCBAa8d1471A94D57615a"
  ],
  "numDeployments": 1,
  "solcInputHash": "9fdc751b3f429f862001ac5fb1712f48",
  "bytecode": "0x608060405234801561001057600080fd5b50604051610c00380380610c0083398101604081905261002f916100d5565b61003833610069565b600180546001600160a01b039384166001600160a01b03199182161790915560028054929093169116179055610108565b600080546001600160a01b038381166001600160a01b0319831681178455604051919092169283917f8be0079c531659141344cd1fd0a4f28419497f9722a3daafe3b4186f6b6457e09190a35050565b80516001600160a01b03811681146100d057600080fd5b919050565b600080604083850312156100e857600080fd5b6100f1836100b9565b91506100ff602084016100b9565b90509250929050565b610ae9806101176000396000f3fe608060405234801561001057600080fd5b50600436106100c95760003560e01c8063715018a611610081578063a694fc3a1161005b578063a694fc3a146101c4578063f2fde38b146101d7578063f499d7d3146101ea57600080fd5b8063715018a61461017d57806377473627146101855780638da5cb5b146101b357600080fd5b80632e1a7d4d116100b25780632e1a7d4d1461012c5780633259d1f11461013f5780634f3e7ba61461015257600080fd5b806307a96cbf146100ce578063150b7a02146100e3575b600080fd5b6100e16100dc366004610966565b6101fd565b005b6100f66100f136600461098a565b61028b565b6040517fffffffff0000000000000000000000000000000000000000000000000000000090911681526020015b60405180910390f35b6100e161013a366004610a29565b6102f7565b6100e161014d366004610966565b610484565b600254610165906001600160a01b031681565b6040516001600160a01b039091168152602001610123565b6100e161050d565b6101a5610193366004610966565b60036020526000908152604090205481565b604051908152602001610123565b6000546001600160a01b0316610165565b6100e16101d2366004610a29565b610573565b6100e16101e5366004610966565b610812565b600154610165906001600160a01b031681565b6000546001600160a01b0316331461025c5760405162461bcd60e51b815260206004820181905260248201527f4f776e61626c653a2063616c6c6572206973206e6f7420746865206f776e657260448201526064015b60405180910390fd5b6002805473ffffffffffffffffffffffffffffffffffffffff19166001600160a01b0392909216919091179055565b60007f114f4fb527670228e4399fe1472e6a44fa3679d755d1d9f29863bf0272077ea686868686866040516102c4959493929190610a42565b60405180910390a1507f150b7a020000000000000000000000000000000000000000000000000000000095945050505050565b3360009081526003602052604090205481146103555760405162461bcd60e51b815260206004820152601260248201527f6e6f74206f776e6572206f6620746f6b656e00000000000000000000000000006044820152606401610253565b600154604051632142170760e11b8152306004820152336024820152604481018390526001600160a01b03909116906342842e0e90606401600060405180830381600087803b1580156103a757600080fd5b505af11580156103bb573d6000803e3d6000fd5b5050336000818152600360205260408082209190915560025490517f8d9be0ee00000000000000000000000000000000000000000000000000000000815260048101929092526001600160a01b03169250638d9be0ee9150602401600060405180830381600087803b15801561043057600080fd5b505af1158015610444573d6000803e3d6000fd5b5050604080518481523360208201527f73acced2a55c13500352cbaee267975fbe81aaf5d434d0f76eac7da7aae52c5f935001905060405180910390a150565b6000546001600160a01b031633146104de5760405162461bcd60e51b815260206004820181905260248201527f4f776e61626c653a2063616c6c6572206973206e6f7420746865206f776e65726044820152606401610253565b6001805473ffffffffffffffffffffffffffffffffffffffff19166001600160a01b0392909216919091179055565b6000546001600160a01b031633146105675760405162461bcd60e51b815260206004820181905260248201527f4f776e61626c653a2063616c6c6572206973206e6f7420746865206f776e65726044820152606401610253565b61057160006108f4565b565b6001546040517f6352211e0000000000000000000000000000000000000000000000000000000081526004810183905233916001600160a01b031690636352211e90602401602060405180830381865afa1580156105d5573d6000803e3d6000fd5b505050506040513d601f19601f820116820180604052508101906105f99190610a96565b6001600160a01b03161461064f5760405162461bcd60e51b815260206004820152601260248201527f6e6f74206f776e6572206f6620746f6b656e00000000000000000000000000006044820152606401610253565b8060000361069f5760405162461bcd60e51b815260206004820152601360248201527f746f6b656e49642063616e6e6f742062652030000000000000000000000000006044820152606401610253565b33600090815260036020526040902054156106fc5760405162461bcd60e51b815260206004820152600e60248201527f616c7265616479207374616b65640000000000000000000000000000000000006044820152606401610253565b600154604051632142170760e11b8152336004820152306024820152604481018390526001600160a01b03909116906342842e0e90606401600060405180830381600087803b15801561074e57600080fd5b505af1158015610762573d6000803e3d6000fd5b50503360009081526003602052604081208490559150506063821161078857600161078b565b60025b6002546040517f6bb3535e00000000000000000000000000000000000000000000000000000000815233600482015260ff929092166024830181905292506001600160a01b031690636bb3535e90604401600060405180830381600087803b1580156107f657600080fd5b505af115801561080a573d6000803e3d6000fd5b505050505050565b6000546001600160a01b0316331461086c5760405162461bcd60e51b815260206004820181905260248201527f4f776e61626c653a2063616c6c6572206973206e6f7420746865206f776e65726044820152606401610253565b6001600160a01b0381166108e85760405162461bcd60e51b815260206004820152602660248201527f4f776e61626c653a206e6577206f776e657220697320746865207a65726f206160448201527f64647265737300000000000000000000000000000000000000000000000000006064820152608401610253565b6108f1816108f4565b50565b600080546001600160a01b0383811673ffffffffffffffffffffffffffffffffffffffff19831681178455604051919092169283917f8be0079c531659141344cd1fd0a4f28419497f9722a3daafe3b4186f6b6457e09190a35050565b6001600160a01b03811681146108f157600080fd5b60006020828403121561097857600080fd5b813561098381610951565b9392505050565b6000806000806000608086880312156109a257600080fd5b85356109ad81610951565b945060208601356109bd81610951565b935060408601359250606086013567ffffffffffffffff808211156109e157600080fd5b818801915088601f8301126109f557600080fd5b813581811115610a0457600080fd5b896020828501011115610a1657600080fd5b9699959850939650602001949392505050565b600060208284031215610a3b57600080fd5b5035919050565b60006001600160a01b03808816835280871660208401525084604083015260806060830152826080830152828460a0840137600060a0848401015260a0601f19601f85011683010190509695505050505050565b600060208284031215610aa857600080fd5b81516109838161095156fea2646970667358221220fb445201be43e5410cdbe90c35aec37958e633c37845a6670356eea4afb004c564736f6c634300080d0033",
  "devdoc": {
    "kind": "dev",
    "methods": {
      "onERC721Received(address,address,uint256,bytes)": {
        "details": "Whenever an {IERC721} `tokenId` token is transferred to this contract via {IERC721-safeTransferFrom} by `operator` from `from`, this function is called. It must return its Solidity selector to confirm the token transfer. If any other value is returned or the interface is not implemented by the recipient, the transfer will be reverted. The selector can be obtained in Solidity with `IERC721Receiver.onERC721Received.selector`."
      },
      "owner()": {
        "details": "Returns the address of the current owner."
      },
      "renounceOwnership()": {
        "details": "Leaves the contract without owner. It will not be possible to call `onlyOwner` functions anymore. Can only be called by the current owner. NOTE: Renouncing ownership will leave the contract without an owner, thereby removing any functionality that is only available to the owner."
      },
      "transferOwnership(address)": {
        "details": "Transfers ownership of the contract to a new account (`newOwner`). Can only be called by the current owner."
      }
    },
    "version": 1
  },
  "userdoc": {
    "kind": "user",
    "methods": {},
    "version": 1
  },
  "storageLayout": {
    "storage": [
      {
        "astId": 7,
        "contract": "contracts/NFTStaking.sol:NFTStaking",
        "label": "_owner",
        "offset": 0,
        "slot": "0",
        "type": "t_address"
      },
      {
        "astId": 3293,
        "contract": "contracts/NFTStaking.sol:NFTStaking",
        "label": "degisNFT",
        "offset": 0,
        "slot": "1",
        "type": "t_contract(IDegisNFT)3273"
      },
      {
        "astId": 3296,
        "contract": "contracts/NFTStaking.sol:NFTStaking",
        "label": "veDEG",
        "offset": 0,
        "slot": "2",
        "type": "t_contract(IVeDEG)3286"
      },
      {
        "astId": 3300,
        "contract": "contracts/NFTStaking.sol:NFTStaking",
        "label": "champions",
        "offset": 0,
        "slot": "3",
        "type": "t_mapping(t_address,t_uint256)"
      }
    ],
    "types": {
      "t_address": {
        "encoding": "inplace",
        "label": "address",
        "numberOfBytes": "20"
      },
      "t_contract(IDegisNFT)3273": {
        "encoding": "inplace",
        "label": "contract IDegisNFT",
        "numberOfBytes": "20"
      },
      "t_contract(IVeDEG)3286": {
        "encoding": "inplace",
        "label": "contract IVeDEG",
        "numberOfBytes": "20"
      },
      "t_mapping(t_address,t_uint256)": {
        "encoding": "mapping",
        "key": "t_address",
        "label": "mapping(address => uint256)",
        "numberOfBytes": "32",
        "value": "t_uint256"
      },
      "t_uint256": {
        "encoding": "inplace",
        "label": "uint256",
        "numberOfBytes": "32"
      }
    }
  }
}